{
  "_format": "hh-sol-artifact-1",
  "contractName": "MyEpicNFT",
  "sourceName": "contracts/MyEpicNFT.sol",
  "abi": [
    {
      "inputs": [],
      "stateMutability": "nonpayable",
      "type": "constructor"
    },
    {
      "anonymous": false,
      "inputs": [
        {
          "indexed": true,
          "internalType": "address",
          "name": "owner",
          "type": "address"
        },
        {
          "indexed": true,
          "internalType": "address",
          "name": "approved",
          "type": "address"
        },
        {
          "indexed": true,
          "internalType": "uint256",
          "name": "tokenId",
          "type": "uint256"
        }
      ],
      "name": "Approval",
      "type": "event"
    },
    {
      "anonymous": false,
      "inputs": [
        {
          "indexed": true,
          "internalType": "address",
          "name": "owner",
          "type": "address"
        },
        {
          "indexed": true,
          "internalType": "address",
          "name": "operator",
          "type": "address"
        },
        {
          "indexed": false,
          "internalType": "bool",
          "name": "approved",
          "type": "bool"
        }
      ],
      "name": "ApprovalForAll",
      "type": "event"
    },
    {
      "anonymous": false,
      "inputs": [
        {
          "indexed": false,
          "internalType": "address",
          "name": "sender",
          "type": "address"
        },
        {
          "indexed": false,
          "internalType": "uint256",
          "name": "tokenId",
          "type": "uint256"
        }
      ],
      "name": "NewEpicNFTMinted",
      "type": "event"
    },
    {
      "anonymous": false,
      "inputs": [
        {
          "indexed": true,
          "internalType": "address",
          "name": "from",
          "type": "address"
        },
        {
          "indexed": true,
          "internalType": "address",
          "name": "to",
          "type": "address"
        },
        {
          "indexed": true,
          "internalType": "uint256",
          "name": "tokenId",
          "type": "uint256"
        }
      ],
      "name": "Transfer",
      "type": "event"
    },
    {
      "inputs": [
        {
          "internalType": "address",
          "name": "to",
          "type": "address"
        },
        {
          "internalType": "uint256",
          "name": "tokenId",
          "type": "uint256"
        }
      ],
      "name": "approve",
      "outputs": [],
      "stateMutability": "nonpayable",
      "type": "function"
    },
    {
      "inputs": [
        {
          "internalType": "address",
          "name": "owner",
          "type": "address"
        }
      ],
      "name": "balanceOf",
      "outputs": [
        {
          "internalType": "uint256",
          "name": "",
          "type": "uint256"
        }
      ],
      "stateMutability": "view",
      "type": "function"
    },
    {
      "inputs": [
        {
          "internalType": "uint256",
          "name": "tokenId",
          "type": "uint256"
        }
      ],
      "name": "getApproved",
      "outputs": [
        {
          "internalType": "address",
          "name": "",
          "type": "address"
        }
      ],
      "stateMutability": "view",
      "type": "function"
    },
    {
      "inputs": [],
      "name": "getMaxSupply",
      "outputs": [
        {
          "internalType": "uint256",
          "name": "",
          "type": "uint256"
        }
      ],
      "stateMutability": "view",
      "type": "function"
    },
    {
      "inputs": [],
      "name": "getTotalNFTsMintedSoFar",
      "outputs": [
        {
          "internalType": "uint256",
          "name": "",
          "type": "uint256"
        }
      ],
      "stateMutability": "view",
      "type": "function"
    },
    {
      "inputs": [
        {
          "internalType": "address",
          "name": "owner",
          "type": "address"
        },
        {
          "internalType": "address",
          "name": "operator",
          "type": "address"
        }
      ],
      "name": "isApprovedForAll",
      "outputs": [
        {
          "internalType": "bool",
          "name": "",
          "type": "bool"
        }
      ],
      "stateMutability": "view",
      "type": "function"
    },
    {
      "inputs": [],
      "name": "makeAnEpicNFT",
      "outputs": [],
      "stateMutability": "nonpayable",
      "type": "function"
    },
    {
      "inputs": [],
      "name": "name",
      "outputs": [
        {
          "internalType": "string",
          "name": "",
          "type": "string"
        }
      ],
      "stateMutability": "view",
      "type": "function"
    },
    {
      "inputs": [
        {
          "internalType": "uint256",
          "name": "tokenId",
          "type": "uint256"
        }
      ],
      "name": "ownerOf",
      "outputs": [
        {
          "internalType": "address",
          "name": "",
          "type": "address"
        }
      ],
      "stateMutability": "view",
      "type": "function"
    },
    {
      "inputs": [
        {
          "internalType": "uint256",
          "name": "tokenId",
          "type": "uint256"
        }
      ],
      "name": "pickRandomFirstWord",
      "outputs": [
        {
          "internalType": "string",
          "name": "",
          "type": "string"
        }
      ],
      "stateMutability": "view",
      "type": "function"
    },
    {
      "inputs": [
        {
          "internalType": "uint256",
          "name": "tokenId",
          "type": "uint256"
        }
      ],
      "name": "pickRandomSecondWord",
      "outputs": [
        {
          "internalType": "string",
          "name": "",
          "type": "string"
        }
      ],
      "stateMutability": "view",
      "type": "function"
    },
    {
      "inputs": [
        {
          "internalType": "uint256",
          "name": "tokenId",
          "type": "uint256"
        }
      ],
      "name": "pickRandomThirdWord",
      "outputs": [
        {
          "internalType": "string",
          "name": "",
          "type": "string"
        }
      ],
      "stateMutability": "view",
      "type": "function"
    },
    {
      "inputs": [
        {
          "internalType": "address",
          "name": "from",
          "type": "address"
        },
        {
          "internalType": "address",
          "name": "to",
          "type": "address"
        },
        {
          "internalType": "uint256",
          "name": "tokenId",
          "type": "uint256"
        }
      ],
      "name": "safeTransferFrom",
      "outputs": [],
      "stateMutability": "nonpayable",
      "type": "function"
    },
    {
      "inputs": [
        {
          "internalType": "address",
          "name": "from",
          "type": "address"
        },
        {
          "internalType": "address",
          "name": "to",
          "type": "address"
        },
        {
          "internalType": "uint256",
          "name": "tokenId",
          "type": "uint256"
        },
        {
          "internalType": "bytes",
          "name": "_data",
          "type": "bytes"
        }
      ],
      "name": "safeTransferFrom",
      "outputs": [],
      "stateMutability": "nonpayable",
      "type": "function"
    },
    {
      "inputs": [
        {
          "internalType": "address",
          "name": "operator",
          "type": "address"
        },
        {
          "internalType": "bool",
          "name": "approved",
          "type": "bool"
        }
      ],
      "name": "setApprovalForAll",
      "outputs": [],
      "stateMutability": "nonpayable",
      "type": "function"
    },
    {
      "inputs": [
        {
          "internalType": "bytes4",
          "name": "interfaceId",
          "type": "bytes4"
        }
      ],
      "name": "supportsInterface",
      "outputs": [
        {
          "internalType": "bool",
          "name": "",
          "type": "bool"
        }
      ],
      "stateMutability": "view",
      "type": "function"
    },
    {
      "inputs": [],
      "name": "symbol",
      "outputs": [
        {
          "internalType": "string",
          "name": "",
          "type": "string"
        }
      ],
      "stateMutability": "view",
      "type": "function"
    },
    {
      "inputs": [
        {
          "internalType": "uint256",
          "name": "tokenId",
          "type": "uint256"
        }
      ],
      "name": "tokenURI",
      "outputs": [
        {
          "internalType": "string",
          "name": "",
          "type": "string"
        }
      ],
      "stateMutability": "view",
      "type": "function"
    },
    {
      "inputs": [
        {
          "internalType": "address",
          "name": "from",
          "type": "address"
        },
        {
          "internalType": "address",
          "name": "to",
          "type": "address"
        },
        {
          "internalType": "uint256",
          "name": "tokenId",
          "type": "uint256"
        }
      ],
      "name": "transferFrom",
      "outputs": [],
      "stateMutability": "nonpayable",
      "type": "function"
    }
  ],
  "bytecode": "0x6080604052603260085560405180610160016040528061012f8152602001620043f661012f9139600990805190602001906200003d92919062000683565b506040518060c001604052806040518060400160405280600881526020017f41646f7261626c6500000000000000000000000000000000000000000000000081525081526020016040518060400160405280600b81526020017f416476656e7475726f757300000000000000000000000000000000000000000081525081526020016040518060400160405280600a81526020017f416767726573736976650000000000000000000000000000000000000000000081525081526020016040518060400160405280600981526020017f416772656561626c65000000000000000000000000000000000000000000000081525081526020016040518060400160405280600581526020017f416c65727400000000000000000000000000000000000000000000000000000081525081526020016040518060400160405280600581526020017f416c697665000000000000000000000000000000000000000000000000000000815250815250600a906006620001bb92919062000714565b506040518060c001604052806040518060400160405280600581526020017f4170706c6500000000000000000000000000000000000000000000000000000081525081526020016040518060400160405280600681526020017f4f72616e6765000000000000000000000000000000000000000000000000000081525081526020016040518060400160405280600a81526020017f537472617762657272790000000000000000000000000000000000000000000081525081526020016040518060400160405280600681526020017f42616e616e61000000000000000000000000000000000000000000000000000081525081526020016040518060400160405280600481526020017f4b6977690000000000000000000000000000000000000000000000000000000081525081526020016040518060400160405280600881526020017f486f6e6579646577000000000000000000000000000000000000000000000000815250815250600b9060066200033992919062000714565b506040518060c001604052806040518060400160405280600781526020017f506174616d6f6e0000000000000000000000000000000000000000000000000081525081526020016040518060400160405280600a81526020017f546572726965726d6f6e0000000000000000000000000000000000000000000081525081526020016040518060400160405280600681526020017f4167756d6f6e000000000000000000000000000000000000000000000000000081525081526020016040518060400160405280600681526020017f5665656d6f6e000000000000000000000000000000000000000000000000000081525081526020016040518060400160405280600681526020017f50616c6d6f6e000000000000000000000000000000000000000000000000000081525081526020016040518060400160405280600781526020017f4269796f6d6f6e00000000000000000000000000000000000000000000000000815250815250600c906006620004b792919062000714565b50348015620004c557600080fd5b506040518060400160405280600781526020017f446967696d6f6e000000000000000000000000000000000000000000000000008152506040518060400160405280600481526020017f444947490000000000000000000000000000000000000000000000000000000081525081600090805190602001906200054a92919062000683565b5080600190805190602001906200056392919062000683565b505050620005b16040518060400160405280601e81526020017f54686973206973206120446967696d6f6e204e465420636f6e74726163740000815250620005b760201b620012e61760201c565b62000935565b6200065781604051602401620005ce919062000849565b6040516020818303038152906040527f41304fac000000000000000000000000000000000000000000000000000000007bffffffffffffffffffffffffffffffffffffffffffffffffffffffff19166020820180517bffffffffffffffffffffffffffffffffffffffffffffffffffffffff83818316178352505050506200065a60201b60201c565b50565b60008151905060006a636f6e736f6c652e6c6f679050602083016000808483855afa5050505050565b8280546200069190620008bf565b90600052602060002090601f016020900481019282620006b5576000855562000701565b82601f10620006d057805160ff191683800117855562000701565b8280016001018555821562000701579182015b8281111562000700578251825591602001919060010190620006e3565b5b5090506200071091906200077b565b5090565b82805482825590600052602060002090810192821562000768579160200282015b82811115620007675782518290805190602001906200075692919062000683565b509160200191906001019062000735565b5b5090506200077791906200079a565b5090565b5b80821115620007965760008160009055506001016200077c565b5090565b5b80821115620007be5760008181620007b49190620007c2565b506001016200079b565b5090565b508054620007d090620008bf565b6000825580601f10620007e4575062000805565b601f0160209004906000526020600020908101906200080491906200077b565b5b50565b600062000815826200086d565b62000821818562000878565b93506200083381856020860162000889565b6200083e8162000924565b840191505092915050565b6000602082019050818103600083015262000865818462000808565b905092915050565b600081519050919050565b600082825260208201905092915050565b60005b83811015620008a95780820151818401526020810190506200088c565b83811115620008b9576000848401525b50505050565b60006002820490506001821680620008d857607f821691505b60208210811415620008ef57620008ee620008f5565b5b50919050565b7f4e487b7100000000000000000000000000000000000000000000000000000000600052602260045260246000fd5b6000601f19601f8301169050919050565b613ab180620009456000396000f3fe608060405234801561001057600080fd5b50600436106101215760003560e01c80636352211e116100ad578063b88d4fde11610071578063b88d4fde1461032e578063c575757a1461034a578063c87b56dd1461037a578063de9d132f146103aa578063e985e9c5146103b457610121565b80636352211e1461026457806370a082311461029457806395d89b41146102c4578063a22cb465146102e2578063b187301f146102fe57610121565b8063095ea7b3116100f4578063095ea7b3146101c257806323b872dd146101de5780632de38d68146101fa57806342842e0e1461022a5780634c0f38c21461024657610121565b806301ffc9a714610126578063060475901461015657806306fdde0314610174578063081812fc14610192575b600080fd5b610140600480360381019061013b9190612579565b6103e4565b60405161014d9190612ca6565b60405180910390f35b61015e6104c6565b60405161016b9190612f41565b60405180910390f35b61017c6104e3565b6040516101899190612cc1565b60405180910390f35b6101ac60048036038101906101a791906125cb565b610575565b6040516101b99190612c16565b60405180910390f35b6101dc60048036038101906101d7919061253d565b6105fa565b005b6101f860048036038101906101f39190612437565b610712565b005b610214600480360381019061020f91906125cb565b610772565b6040516102219190612cc1565b60405180910390f35b610244600480360381019061023f9190612437565b610890565b005b61024e6108b0565b60405161025b9190612f41565b60405180910390f35b61027e600480360381019061027991906125cb565b6108ba565b60405161028b9190612c16565b60405180910390f35b6102ae60048036038101906102a991906123d2565b61096c565b6040516102bb9190612f41565b60405180910390f35b6102cc610a24565b6040516102d99190612cc1565b60405180910390f35b6102fc60048036038101906102f79190612501565b610ab6565b005b610318600480360381019061031391906125cb565b610c37565b6040516103259190612cc1565b60405180910390f35b61034860048036038101906103439190612486565b610d55565b005b610364600480360381019061035f91906125cb565b610db7565b6040516103719190612cc1565b60405180910390f35b610394600480360381019061038f91906125cb565b610ed5565b6040516103a19190612cc1565b60405180910390f35b6103b2611027565b005b6103ce60048036038101906103c991906123fb565b611252565b6040516103db9190612ca6565b60405180910390f35b60007f80ac58cd000000000000000000000000000000000000000000000000000000007bffffffffffffffffffffffffffffffffffffffffffffffffffffffff1916827bffffffffffffffffffffffffffffffffffffffffffffffffffffffff191614806104af57507f5b5e139f000000000000000000000000000000000000000000000000000000007bffffffffffffffffffffffffffffffffffffffffffffffffffffffff1916827bffffffffffffffffffffffffffffffffffffffffffffffffffffffff1916145b806104bf57506104be8261137f565b5b9050919050565b600060016104d460076113e9565b6104de919061300a565b905090565b6060600080546104f2906131d5565b80601f016020809104026020016040519081016040528092919081815260200182805461051e906131d5565b801561056b5780601f106105405761010080835404028352916020019161056b565b820191906000526020600020905b81548152906001019060200180831161054e57829003601f168201915b5050505050905090565b6000610580826113f7565b6105bf576040517f08c379a00000000000000000000000000000000000000000000000000000000081526004016105b690612e81565b60405180910390fd5b6004600083815260200190815260200160002060009054906101000a900473ffffffffffffffffffffffffffffffffffffffff169050919050565b6000610605826108ba565b90508073ffffffffffffffffffffffffffffffffffffffff168373ffffffffffffffffffffffffffffffffffffffff161415610676576040517f08c379a000000000000000000000000000000000000000000000000000000000815260040161066d90612f01565b60405180910390fd5b8073ffffffffffffffffffffffffffffffffffffffff16610695611463565b73ffffffffffffffffffffffffffffffffffffffff1614806106c457506106c3816106be611463565b611252565b5b610703576040517f08c379a00000000000000000000000000000000000000000000000000000000081526004016106fa90612dc1565b60405180910390fd5b61070d838361146b565b505050565b61072361071d611463565b82611524565b610762576040517f08c379a000000000000000000000000000000000000000000000000000000000815260040161075990612f21565b60405180910390fd5b61076d838383611602565b505050565b606060006107a66107828461185e565b6040516020016107929190612bd2565b604051602081830303815290604052611a0b565b9050600a80549050816107b99190613281565b9050600a81815481106107f5577f4e487b7100000000000000000000000000000000000000000000000000000000600052603260045260246000fd5b90600052602060002001805461080a906131d5565b80601f0160208091040260200160405190810160405280929190818152602001828054610836906131d5565b80156108835780601f1061085857610100808354040283529160200191610883565b820191906000526020600020905b81548152906001019060200180831161086657829003601f168201915b5050505050915050919050565b6108ab83838360405180602001604052806000815250610d55565b505050565b6000600854905090565b6000806002600084815260200190815260200160002060009054906101000a900473ffffffffffffffffffffffffffffffffffffffff169050600073ffffffffffffffffffffffffffffffffffffffff168173ffffffffffffffffffffffffffffffffffffffff161415610963576040517f08c379a000000000000000000000000000000000000000000000000000000000815260040161095a90612e01565b60405180910390fd5b80915050919050565b60008073ffffffffffffffffffffffffffffffffffffffff168273ffffffffffffffffffffffffffffffffffffffff1614156109dd576040517f08c379a00000000000000000000000000000000000000000000000000000000081526004016109d490612de1565b60405180910390fd5b600360008373ffffffffffffffffffffffffffffffffffffffff1673ffffffffffffffffffffffffffffffffffffffff168152602001908152602001600020549050919050565b606060018054610a33906131d5565b80601f0160208091040260200160405190810160405280929190818152602001828054610a5f906131d5565b8015610aac5780601f10610a8157610100808354040283529160200191610aac565b820191906000526020600020905b815481529060010190602001808311610a8f57829003601f168201915b5050505050905090565b610abe611463565b73ffffffffffffffffffffffffffffffffffffffff168273ffffffffffffffffffffffffffffffffffffffff161415610b2c576040517f08c379a0000000000000000000000000000000000000000000000000000000008152600401610b2390612d81565b60405180910390fd5b8060056000610b39611463565b73ffffffffffffffffffffffffffffffffffffffff1673ffffffffffffffffffffffffffffffffffffffff16815260200190815260200160002060008473ffffffffffffffffffffffffffffffffffffffff1673ffffffffffffffffffffffffffffffffffffffff16815260200190815260200160002060006101000a81548160ff0219169083151502179055508173ffffffffffffffffffffffffffffffffffffffff16610be6611463565b73ffffffffffffffffffffffffffffffffffffffff167f17307eab39ab6107e8899845ad3d59bd9653f200f220920489ca2b5937696c3183604051610c2b9190612ca6565b60405180910390a35050565b60606000610c6b610c478461185e565b604051602001610c579190612b6b565b604051602081830303815290604052611a0b565b9050600b8054905081610c7e9190613281565b9050600b8181548110610cba577f4e487b7100000000000000000000000000000000000000000000000000000000600052603260045260246000fd5b906000526020600020018054610ccf906131d5565b80601f0160208091040260200160405190810160405280929190818152602001828054610cfb906131d5565b8015610d485780601f10610d1d57610100808354040283529160200191610d48565b820191906000526020600020905b815481529060010190602001808311610d2b57829003601f168201915b5050505050915050919050565b610d66610d60611463565b83611524565b610da5576040517f08c379a0000000000000000000000000000000000000000000000000000000008152600401610d9c90612f21565b60405180910390fd5b610db184848484611a3e565b50505050565b60606000610deb610dc78461185e565b604051602001610dd79190612b49565b604051602081830303815290604052611a0b565b9050600c8054905081610dfe9190613281565b9050600c8181548110610e3a577f4e487b7100000000000000000000000000000000000000000000000000000000600052603260045260246000fd5b906000526020600020018054610e4f906131d5565b80601f0160208091040260200160405190810160405280929190818152602001828054610e7b906131d5565b8015610ec85780601f10610e9d57610100808354040283529160200191610ec8565b820191906000526020600020905b815481529060010190602001808311610eab57829003601f168201915b5050505050915050919050565b6060610ee0826113f7565b610f1f576040517f08c379a0000000000000000000000000000000000000000000000000000000008152600401610f1690612e61565b60405180910390fd5b6000600660008481526020019081526020016000208054610f3f906131d5565b80601f0160208091040260200160405190810160405280929190818152602001828054610f6b906131d5565b8015610fb85780601f10610f8d57610100808354040283529160200191610fb8565b820191906000526020600020905b815481529060010190602001808311610f9b57829003601f168201915b505050505090506000610fc9611a9a565b9050600081511415610fdf578192505050611022565b600082511115611014578082604051602001610ffc929190612ac5565b60405160208183030381529060405292505050611022565b61101d84611ab1565b925050505b919050565b600061103360076113e9565b90506008548110611079576040517f08c379a000000000000000000000000000000000000000000000000000000000815260040161107090612ea1565b60405180910390fd5b600061108482610772565b9050600061109183610c37565b9050600061109e84610db7565b905060008383836040516020016110b793929190612ae9565b604051602081830303815290604052905060006009826040516020016110de929190612b1a565b60405160208183030381529060405290506000611123836110fe84611b58565b60405160200161110f929190612b8d565b604051602081830303815290604052611b58565b90506000816040516020016111389190612bf4565b60405160208183030381529060405290506111876040518060400160405280601581526020017f0a2d2d2d2d2d2d2d2d2d2d2d2d2d2d2d2d2d2d2d2d00000000000000000000008152506112e6565b611190816112e6565b6111ce6040518060400160405280601581526020017f2d2d2d2d2d2d2d2d2d2d2d2d2d2d2d2d2d2d2d2d0a00000000000000000000008152506112e6565b6111d83389611d16565b6111e28882611d34565b611205604051806060016040528060258152602001613a17602591398933611da8565b7febb98688741ffa4c7589bf325de30cf7becb63de567842e1ccdb6cb949fdc82c3389604051611236929190612c7d565b60405180910390a16112486007611e47565b5050505050505050565b6000600560008473ffffffffffffffffffffffffffffffffffffffff1673ffffffffffffffffffffffffffffffffffffffff16815260200190815260200160002060008373ffffffffffffffffffffffffffffffffffffffff1673ffffffffffffffffffffffffffffffffffffffff16815260200190815260200160002060009054906101000a900460ff16905092915050565b61137c816040516024016112fa9190612cc1565b6040516020818303038152906040527f41304fac000000000000000000000000000000000000000000000000000000007bffffffffffffffffffffffffffffffffffffffffffffffffffffffff19166020820180517bffffffffffffffffffffffffffffffffffffffffffffffffffffffff8381831617835250505050611e5d565b50565b60007f01ffc9a7000000000000000000000000000000000000000000000000000000007bffffffffffffffffffffffffffffffffffffffffffffffffffffffff1916827bffffffffffffffffffffffffffffffffffffffffffffffffffffffff1916149050919050565b600081600001549050919050565b60008073ffffffffffffffffffffffffffffffffffffffff166002600084815260200190815260200160002060009054906101000a900473ffffffffffffffffffffffffffffffffffffffff1673ffffffffffffffffffffffffffffffffffffffff1614159050919050565b600033905090565b816004600083815260200190815260200160002060006101000a81548173ffffffffffffffffffffffffffffffffffffffff021916908373ffffffffffffffffffffffffffffffffffffffff160217905550808273ffffffffffffffffffffffffffffffffffffffff166114de836108ba565b73ffffffffffffffffffffffffffffffffffffffff167f8c5be1e5ebec7d5bd14f71427d1e84f3dd0314c0f7b2291e5b200ac8c7c3b92560405160405180910390a45050565b600061152f826113f7565b61156e576040517f08c379a000000000000000000000000000000000000000000000000000000000815260040161156590612da1565b60405180910390fd5b6000611579836108ba565b90508073ffffffffffffffffffffffffffffffffffffffff168473ffffffffffffffffffffffffffffffffffffffff1614806115e857508373ffffffffffffffffffffffffffffffffffffffff166115d084610575565b73ffffffffffffffffffffffffffffffffffffffff16145b806115f957506115f88185611252565b5b91505092915050565b8273ffffffffffffffffffffffffffffffffffffffff16611622826108ba565b73ffffffffffffffffffffffffffffffffffffffff1614611678576040517f08c379a000000000000000000000000000000000000000000000000000000000815260040161166f90612ec1565b60405180910390fd5b600073ffffffffffffffffffffffffffffffffffffffff168273ffffffffffffffffffffffffffffffffffffffff1614156116e8576040517f08c379a00000000000000000000000000000000000000000000000000000000081526004016116df90612d61565b60405180910390fd5b6116f3838383611e86565b6116fe60008261146b565b6001600360008573ffffffffffffffffffffffffffffffffffffffff1673ffffffffffffffffffffffffffffffffffffffff168152602001908152602001600020600082825461174e91906130eb565b925050819055506001600360008473ffffffffffffffffffffffffffffffffffffffff1673ffffffffffffffffffffffffffffffffffffffff16815260200190815260200160002060008282546117a5919061300a565b92505081905550816002600083815260200190815260200160002060006101000a81548173ffffffffffffffffffffffffffffffffffffffff021916908373ffffffffffffffffffffffffffffffffffffffff160217905550808273ffffffffffffffffffffffffffffffffffffffff168473ffffffffffffffffffffffffffffffffffffffff167fddf252ad1be2c89b69c2b068fc378daa952ba7f163c4a11628f55a4df523b3ef60405160405180910390a4505050565b606060008214156118a6576040518060400160405280600181526020017f30000000000000000000000000000000000000000000000000000000000000008152509050611a06565b600082905060005b600082146118d85780806118c190613238565b915050600a826118d19190613060565b91506118ae565b60008167ffffffffffffffff81111561191a577f4e487b7100000000000000000000000000000000000000000000000000000000600052604160045260246000fd5b6040519080825280601f01601f19166020018201604052801561194c5781602001600182028036833780820191505090505b5090505b600085146119ff5760018261196591906130eb565b9150600a856119749190613281565b6030611980919061300a565b60f81b8183815181106119bc577f4e487b7100000000000000000000000000000000000000000000000000000000600052603260045260246000fd5b60200101907effffffffffffffffffffffffffffffffffffffffffffffffffffffffffffff1916908160001a905350600a856119f89190613060565b9450611950565b8093505050505b919050565b600081604051602001611a1e9190612aae565b6040516020818303038152906040528051906020012060001c9050919050565b611a49848484611602565b611a5584848484611e8b565b611a94576040517f08c379a0000000000000000000000000000000000000000000000000000000008152600401611a8b90612d21565b60405180910390fd5b50505050565b606060405180602001604052806000815250905090565b6060611abc826113f7565b611afb576040517f08c379a0000000000000000000000000000000000000000000000000000000008152600401611af290612ee1565b60405180910390fd5b6000611b05611a9a565b90506000815111611b255760405180602001604052806000815250611b50565b80611b2f8461185e565b604051602001611b40929190612ac5565b6040516020818303038152906040525b915050919050565b60606000825190506000811415611b815760405180602001604052806000815250915050611d11565b60006003600283611b92919061300a565b611b9c9190613060565b6004611ba89190613091565b90506000602082611bb9919061300a565b67ffffffffffffffff811115611bf8577f4e487b7100000000000000000000000000000000000000000000000000000000600052604160045260246000fd5b6040519080825280601f01601f191660200182016040528015611c2a5781602001600182028036833780820191505090505b5090506000604051806060016040528060408152602001613a3c604091399050600181016020830160005b86811015611cce5760038101905062ffffff818a015116603f8160121c168401518060081b905060ff603f83600c1c1686015116810190508060081b905060ff603f8360061c1686015116810190508060081b905060ff603f831686015116810190508060e01b90508084526004840193505050611c55565b506003860660018114611ce85760028114611cf857611d03565b613d3d60f01b6002830352611d03565b603d60f81b60018303525b508484525050819450505050505b919050565b611d30828260405180602001604052806000815250612022565b5050565b611d3d826113f7565b611d7c576040517f08c379a0000000000000000000000000000000000000000000000000000000008152600401611d7390612e21565b60405180910390fd5b80600660008481526020019081526020016000209080519060200190611da392919061225e565b505050565b611e42838383604051602401611dc093929190612ce3565b6040516020818303038152906040527fe3849f79000000000000000000000000000000000000000000000000000000007bffffffffffffffffffffffffffffffffffffffffffffffffffffffff19166020820180517bffffffffffffffffffffffffffffffffffffffffffffffffffffffff8381831617835250505050611e5d565b505050565b6001816000016000828254019250508190555050565b60008151905060006a636f6e736f6c652e6c6f679050602083016000808483855afa5050505050565b505050565b6000611eac8473ffffffffffffffffffffffffffffffffffffffff1661207d565b15612015578373ffffffffffffffffffffffffffffffffffffffff1663150b7a02611ed5611463565b8786866040518563ffffffff1660e01b8152600401611ef79493929190612c31565b602060405180830381600087803b158015611f1157600080fd5b505af1925050508015611f4257506040513d601f19601f82011682018060405250810190611f3f91906125a2565b60015b611fc5573d8060008114611f72576040519150601f19603f3d011682016040523d82523d6000602084013e611f77565b606091505b50600081511415611fbd576040517f08c379a0000000000000000000000000000000000000000000000000000000008152600401611fb490612d21565b60405180910390fd5b805181602001fd5b63150b7a0260e01b7bffffffffffffffffffffffffffffffffffffffffffffffffffffffff1916817bffffffffffffffffffffffffffffffffffffffffffffffffffffffff19161491505061201a565b600190505b949350505050565b61202c8383612090565b6120396000848484611e8b565b612078576040517f08c379a000000000000000000000000000000000000000000000000000000000815260040161206f90612d21565b60405180910390fd5b505050565b600080823b905060008111915050919050565b600073ffffffffffffffffffffffffffffffffffffffff168273ffffffffffffffffffffffffffffffffffffffff161415612100576040517f08c379a00000000000000000000000000000000000000000000000000000000081526004016120f790612e41565b60405180910390fd5b612109816113f7565b15612149576040517f08c379a000000000000000000000000000000000000000000000000000000000815260040161214090612d41565b60405180910390fd5b61215560008383611e86565b6001600360008473ffffffffffffffffffffffffffffffffffffffff1673ffffffffffffffffffffffffffffffffffffffff16815260200190815260200160002060008282546121a5919061300a565b92505081905550816002600083815260200190815260200160002060006101000a81548173ffffffffffffffffffffffffffffffffffffffff021916908373ffffffffffffffffffffffffffffffffffffffff160217905550808273ffffffffffffffffffffffffffffffffffffffff16600073ffffffffffffffffffffffffffffffffffffffff167fddf252ad1be2c89b69c2b068fc378daa952ba7f163c4a11628f55a4df523b3ef60405160405180910390a45050565b82805461226a906131d5565b90600052602060002090601f01602090048101928261228c57600085556122d3565b82601f106122a557805160ff19168380011785556122d3565b828001600101855582156122d3579182015b828111156122d25782518255916020019190600101906122b7565b5b5090506122e091906122e4565b5090565b5b808211156122fd5760008160009055506001016122e5565b5090565b600061231461230f84612f81565b612f5c565b90508281526020810184848401111561232c57600080fd5b612337848285613193565b509392505050565b60008135905061234e816139ba565b92915050565b600081359050612363816139d1565b92915050565b600081359050612378816139e8565b92915050565b60008151905061238d816139e8565b92915050565b600082601f8301126123a457600080fd5b81356123b4848260208601612301565b91505092915050565b6000813590506123cc816139ff565b92915050565b6000602082840312156123e457600080fd5b60006123f28482850161233f565b91505092915050565b6000806040838503121561240e57600080fd5b600061241c8582860161233f565b925050602061242d8582860161233f565b9150509250929050565b60008060006060848603121561244c57600080fd5b600061245a8682870161233f565b935050602061246b8682870161233f565b925050604061247c868287016123bd565b9150509250925092565b6000806000806080858703121561249c57600080fd5b60006124aa8782880161233f565b94505060206124bb8782880161233f565b93505060406124cc878288016123bd565b925050606085013567ffffffffffffffff8111156124e957600080fd5b6124f587828801612393565b91505092959194509250565b6000806040838503121561251457600080fd5b60006125228582860161233f565b925050602061253385828601612354565b9150509250929050565b6000806040838503121561255057600080fd5b600061255e8582860161233f565b925050602061256f858286016123bd565b9150509250929050565b60006020828403121561258b57600080fd5b600061259984828501612369565b91505092915050565b6000602082840312156125b457600080fd5b60006125c28482850161237e565b91505092915050565b6000602082840312156125dd57600080fd5b60006125eb848285016123bd565b91505092915050565b6125fd8161311f565b82525050565b61260c81613131565b82525050565b600061261d82612fc7565b6126278185612fdd565b93506126378185602086016131a2565b6126408161336e565b840191505092915050565b600061265682612fd2565b6126608185612fee565b93506126708185602086016131a2565b6126798161336e565b840191505092915050565b600061268f82612fd2565b6126998185612fff565b93506126a98185602086016131a2565b80840191505092915050565b600081546126c2816131d5565b6126cc8186612fff565b945060018216600081146126e757600181146126f85761272b565b60ff1983168652818601935061272b565b61270185612fb2565b60005b8381101561272357815481890152600182019150602081019050612704565b838801955050505b50505092915050565b6000612741603283612fee565b915061274c8261337f565b604082019050919050565b6000612764601c83612fee565b915061276f826133ce565b602082019050919050565b6000612787600a83612fff565b9150612792826133f7565b600a82019050919050565b60006127aa602483612fee565b91506127b582613420565b604082019050919050565b60006127cd601983612fee565b91506127d88261346f565b602082019050919050565b60006127f0600b83612fff565b91506127fb82613498565b600b82019050919050565b6000612813602c83612fee565b915061281e826134c1565b604082019050919050565b6000612836605a83612fff565b915061284182613510565b605a82019050919050565b6000612859600d83612fff565b915061286482613585565b600d82019050919050565b600061287c603883612fee565b9150612887826135ae565b604082019050919050565b600061289f602a83612fee565b91506128aa826135fd565b604082019050919050565b60006128c2602983612fee565b91506128cd8261364c565b604082019050919050565b60006128e5602e83612fee565b91506128f08261369b565b604082019050919050565b6000612908600283612fff565b9150612913826136ea565b600282019050919050565b600061292b602083612fee565b915061293682613713565b602082019050919050565b600061294e603183612fee565b91506129598261373c565b604082019050919050565b6000612971602c83612fee565b915061297c8261378b565b604082019050919050565b6000612994600f83612fee565b915061299f826137da565b602082019050919050565b60006129b7602983612fee565b91506129c282613803565b604082019050919050565b60006129da602f83612fee565b91506129e582613852565b604082019050919050565b60006129fd600a83612fff565b9150612a08826138a1565b600a82019050919050565b6000612a20602183612fee565b9150612a2b826138ca565b604082019050919050565b6000612a43600a83612fff565b9150612a4e82613919565b600a82019050919050565b6000612a66601d83612fff565b9150612a7182613942565b601d82019050919050565b6000612a89603183612fee565b9150612a948261396b565b604082019050919050565b612aa881613189565b82525050565b6000612aba8284612684565b915081905092915050565b6000612ad18285612684565b9150612add8284612684565b91508190509392505050565b6000612af58286612684565b9150612b018285612684565b9150612b0d8284612684565b9150819050949350505050565b6000612b2682856126b5565b9150612b328284612684565b9150612b3d8261284c565b91508190509392505050565b6000612b548261277a565b9150612b608284612684565b915081905092915050565b6000612b76826127e3565b9150612b828284612684565b915081905092915050565b6000612b98826129f0565b9150612ba48285612684565b9150612baf82612829565b9150612bbb8284612684565b9150612bc6826128fb565b91508190509392505050565b6000612bdd82612a36565b9150612be98284612684565b915081905092915050565b6000612bff82612a59565b9150612c0b8284612684565b915081905092915050565b6000602082019050612c2b60008301846125f4565b92915050565b6000608082019050612c4660008301876125f4565b612c5360208301866125f4565b612c606040830185612a9f565b8181036060830152612c728184612612565b905095945050505050565b6000604082019050612c9260008301856125f4565b612c9f6020830184612a9f565b9392505050565b6000602082019050612cbb6000830184612603565b92915050565b60006020820190508181036000830152612cdb818461264b565b905092915050565b60006060820190508181036000830152612cfd818661264b565b9050612d0c6020830185612a9f565b612d1960408301846125f4565b949350505050565b60006020820190508181036000830152612d3a81612734565b9050919050565b60006020820190508181036000830152612d5a81612757565b9050919050565b60006020820190508181036000830152612d7a8161279d565b9050919050565b60006020820190508181036000830152612d9a816127c0565b9050919050565b60006020820190508181036000830152612dba81612806565b9050919050565b60006020820190508181036000830152612dda8161286f565b9050919050565b60006020820190508181036000830152612dfa81612892565b9050919050565b60006020820190508181036000830152612e1a816128b5565b9050919050565b60006020820190508181036000830152612e3a816128d8565b9050919050565b60006020820190508181036000830152612e5a8161291e565b9050919050565b60006020820190508181036000830152612e7a81612941565b9050919050565b60006020820190508181036000830152612e9a81612964565b9050919050565b60006020820190508181036000830152612eba81612987565b9050919050565b60006020820190508181036000830152612eda816129aa565b9050919050565b60006020820190508181036000830152612efa816129cd565b9050919050565b60006020820190508181036000830152612f1a81612a13565b9050919050565b60006020820190508181036000830152612f3a81612a7c565b9050919050565b6000602082019050612f566000830184612a9f565b92915050565b6000612f66612f77565b9050612f728282613207565b919050565b6000604051905090565b600067ffffffffffffffff821115612f9c57612f9b61333f565b5b612fa58261336e565b9050602081019050919050565b60008190508160005260206000209050919050565b600081519050919050565b600081519050919050565b600082825260208201905092915050565b600082825260208201905092915050565b600081905092915050565b600061301582613189565b915061302083613189565b9250827fffffffffffffffffffffffffffffffffffffffffffffffffffffffffffffffff03821115613055576130546132b2565b5b828201905092915050565b600061306b82613189565b915061307683613189565b925082613086576130856132e1565b5b828204905092915050565b600061309c82613189565b91506130a783613189565b9250817fffffffffffffffffffffffffffffffffffffffffffffffffffffffffffffffff04831182151516156130e0576130df6132b2565b5b828202905092915050565b60006130f682613189565b915061310183613189565b925082821015613114576131136132b2565b5b828203905092915050565b600061312a82613169565b9050919050565b60008115159050919050565b60007fffffffff0000000000000000000000000000000000000000000000000000000082169050919050565b600073ffffffffffffffffffffffffffffffffffffffff82169050919050565b6000819050919050565b82818337600083830152505050565b60005b838110156131c05780820151818401526020810190506131a5565b838111156131cf576000848401525b50505050565b600060028204905060018216806131ed57607f821691505b6020821081141561320157613200613310565b5b50919050565b6132108261336e565b810181811067ffffffffffffffff8211171561322f5761322e61333f565b5b80604052505050565b600061324382613189565b91507fffffffffffffffffffffffffffffffffffffffffffffffffffffffffffffffff821415613276576132756132b2565b5b600182019050919050565b600061328c82613189565b915061329783613189565b9250826132a7576132a66132e1565b5b828206905092915050565b7f4e487b7100000000000000000000000000000000000000000000000000000000600052601160045260246000fd5b7f4e487b7100000000000000000000000000000000000000000000000000000000600052601260045260246000fd5b7f4e487b7100000000000000000000000000000000000000000000000000000000600052602260045260246000fd5b7f4e487b7100000000000000000000000000000000000000000000000000000000600052604160045260246000fd5b6000601f19601f8301169050919050565b7f4552433732313a207472616e7366657220746f206e6f6e20455243373231526560008201527f63656976657220696d706c656d656e7465720000000000000000000000000000602082015250565b7f4552433732313a20746f6b656e20616c7265616479206d696e74656400000000600082015250565b7f54484952445f574f524400000000000000000000000000000000000000000000600082015250565b7f4552433732313a207472616e7366657220746f20746865207a65726f2061646460008201527f7265737300000000000000000000000000000000000000000000000000000000602082015250565b7f4552433732313a20617070726f766520746f2063616c6c657200000000000000600082015250565b7f5345434f4e445f574f5244000000000000000000000000000000000000000000600082015250565b7f4552433732313a206f70657261746f7220717565727920666f72206e6f6e657860008201527f697374656e7420746f6b656e0000000000000000000000000000000000000000602082015250565b7f222c20226465736372697074696f6e223a20224120636f6c6c656374696f6e2060008201527f6f6620446967696d6f6e20737175617265732e222c2022696d616765223a202260208201527f646174613a696d6167652f7376672b786d6c3b6261736536342c000000000000604082015250565b7f3c2f746578743e3c2f7376673e00000000000000000000000000000000000000600082015250565b7f4552433732313a20617070726f76652063616c6c6572206973206e6f74206f7760008201527f6e6572206e6f7220617070726f76656420666f7220616c6c0000000000000000602082015250565b7f4552433732313a2062616c616e636520717565727920666f7220746865207a6560008201527f726f206164647265737300000000000000000000000000000000000000000000602082015250565b7f4552433732313a206f776e657220717565727920666f72206e6f6e657869737460008201527f656e7420746f6b656e0000000000000000000000000000000000000000000000602082015250565b7f45524337323155524953746f726167653a2055524920736574206f66206e6f6e60008201527f6578697374656e7420746f6b656e000000000000000000000000000000000000602082015250565b7f227d000000000000000000000000000000000000000000000000000000000000600082015250565b7f4552433732313a206d696e7420746f20746865207a65726f2061646472657373600082015250565b7f45524337323155524953746f726167653a2055524920717565727920666f722060008201527f6e6f6e6578697374656e7420746f6b656e000000000000000000000000000000602082015250565b7f4552433732313a20617070726f76656420717565727920666f72206e6f6e657860008201527f697374656e7420746f6b656e0000000000000000000000000000000000000000602082015250565b7f416c6c204e465473206d696e7465640000000000000000000000000000000000600082015250565b7f4552433732313a207472616e73666572206f6620746f6b656e2074686174206960008201527f73206e6f74206f776e0000000000000000000000000000000000000000000000602082015250565b7f4552433732314d657461646174613a2055524920717565727920666f72206e6f60008201527f6e6578697374656e7420746f6b656e0000000000000000000000000000000000602082015250565b7f7b226e616d65223a202200000000000000000000000000000000000000000000600082015250565b7f4552433732313a20617070726f76616c20746f2063757272656e74206f776e6560008201527f7200000000000000000000000000000000000000000000000000000000000000602082015250565b7f46495253545f574f524400000000000000000000000000000000000000000000600082015250565b7f646174613a6170706c69636174696f6e2f6a736f6e3b6261736536342c000000600082015250565b7f4552433732313a207472616e736665722063616c6c6572206973206e6f74206f60008201527f776e6572206e6f7220617070726f766564000000000000000000000000000000602082015250565b6139c38161311f565b81146139ce57600080fd5b50565b6139da81613131565b81146139e557600080fd5b50565b6139f18161313d565b81146139fc57600080fd5b50565b613a0881613189565b8114613a1357600080fd5b5056fe416e204e465420772f20494420257320686173206265656e206d696e74656420746f2025734142434445464748494a4b4c4d4e4f505152535455565758595a6162636465666768696a6b6c6d6e6f707172737475767778797a303132333435363738392b2fa264697066735822122036e73fc16a6983610dd62f7c61b438d87546401a670af7914b925d9403c9dbf864736f6c634300080400333c73766720786d6c6e733d27687474703a2f2f7777772e77332e6f72672f323030302f73766727207072657365727665417370656374526174696f3d27784d696e594d696e206d656574272076696577426f783d273020302033353020333530273e3c7374796c653e2e62617365207b2066696c6c3a2077686974653b20666f6e742d66616d696c793a2073657269663b20666f6e742d73697a653a20323470783b207d3c2f7374796c653e3c726563742077696474683d273130302527206865696768743d2731303025272066696c6c3d27626c61636b27202f3e3c7465787420783d273530252720793d273530252720636c6173733d27626173652720646f6d696e616e742d626173656c696e653d276d6964646c652720746578742d616e63686f723d276d6964646c65273e",
  "linkReferences": {},
  "deployedLinkReferences": {}
}